:100000000C942B010C945C010C945C010C945C012D
:100010000C945C010C945C010C945C010C945C01EC
:100020000C945C010C945C010C945C010C945C01DC
:100030000C945C010C945C010C945C010C945C01CC
:100040000C945C010C945C010C945C010C945C01BC
:100050000C945C010C945C010C945C010C946C0499
:100060000C945C010C9436040C940C040C945C010C
:100070000C945C010C945C010C945C010C945C018C
:100080000C945C010C945C010C945C010C945C017C
:100090000C945C010C945C010C945C010C945C016C
:1000A0000C945C010C945C010C945C010C945C015C
:1000B0000C945C010C945C010C945C010C945C014C
:1000C0000C945C010C945C010C945C010C945C013C
:1000D0000C945C010C945C010C945C010C945C012C
:1000E0000C945C010C9429030C9455030C948C0122
:1000F0000C941E030C9441030C9447030C94B60417
:100100000C9422030C9403030C944F030C9482026E
:100110000C943D030C9439030C9426030C94EF01CA
:100120000C944B030C9433030C941A030C94FD01B0
:100130000C9435020C949B010C945F010C945903B0
:100140000C9406080C942F030C9408030000210063
:10015000240027002A002D00300033000101000098
:10016000040107010A0100002200250028002B00DD
:100170002E003100340002010000050108010B01CE
:1001800005050505070508080808020202020A0A13
:100190000808040404040101010101010101030331
:1001A000030303030303040707070C0C0C0C0C0CDC
:1001B0000C0C0202020206060606060606060B0BD9
:1001C0000B0B0B0B0B0B010210202008081020401A
:1001D000102040800201020108040201010204080B
:1001E0001020408080402010080402018004020199
:1001F00080402010080402010804020101020408E2
:1002000010204080010204081020408000000A0BEA
:1002100002090C0D0E080703040100000000000095
:1002200000000000000000000000000000000000CE
:10023000000000000000000012111000000000008B
:1002400000000000000000000000000000000000AE
:100250000000B604060811241FBECFEFD1E2DEBFB6
:10026000CDBF00E00CBF23E0A2E7B2E001C01D92C9
:10027000A835B207E1F712E0A0E0B2E0ECE3FAE162
:1002800000E00BBF02C007900D92A237B107D9F76B
:1002900011E0CAE2D1E000E006C021970109802FF9
:1002A000FE010E940F08C932D10780E00807A9F7B4
:1002B0000E942C050C940C0D0C9400000895AF9234
:1002C000BF92CF92DF92EF92FF920F931F93CF9343
:1002D000DF936C017B018B01040F151FEB015E01A5
:1002E000AE18BF08C017D10759F06991D601ED913A
:1002F000FC910190F081E02DC6011995892B79F7C9
:10030000C501DF91CF911F910F91FF90EF90DF908A
:10031000CF90BF90AF900895FC01538D448D252F51
:1003200030E0842F90E0821B930B541710F0CF968F
:10033000089501970895FC01918D828D981761F0C1
:10034000A28DAE0FBF2FB11D5D968C91928D9F5FD8
:100350009F73928F90E008958FEF9FEF08952FB7CE
:10036000F8948091AD029091AE02A091AF02B0914D
:10037000B0022FBF8093B9029093BA02A093BB0240
:10038000B093BC0281EB92E00E949B0197FF26C0D4
:100390002FB7F8948091AD029091AE02A091AF0278
:1003A000B091B0022FBF4091B9025091BA02609152
:1003B000BB027091BC02841B950BA60BB70B40913E
:1003C000B5025091B6026091B7027091B8028417DD
:1003D0009507A607B707B0F28FEF9FEF0895FC01CE
:1003E000918D828D981731F0828DE80FF11D858DEA
:1003F00090E008958FEF9FEF0895FC01918D228D7D
:10040000892F90E0805C9F4F821B91098F73992701
:10041000089581EB92E00E94FD0121E0892B09F40F
:1004200020E0822F0895FC01A48DA80FB92FB11DE3
:10043000A35ABF4F2C91848D90E001968F7399271A
:10044000848FA689B7892C93A089B1898C918370F8
:1004500080648C93938D848D981306C00288F389F1
:10046000E02D80818F7D80830895EF92FF920F931E
:100470001F93CF93DF93EC0181E0888F9B8D8C8D50
:1004800098131AC0E889F989808185FF15C09FB744
:10049000F894EE89FF896083E889F9898081837007
:1004A000806480839FBF81E090E0DF91CF911F91B6
:1004B0000F91FF90EF900895F62E0B8D10E00F5FD7
:1004C0001F4F0F731127E02E8C8D8E110CC00FB6AD
:1004D00007FCFACFE889F989808185FFF5CFCE0145
:1004E0000E941302F1CFEB8DEC0FFD2FF11DE35AAB
:1004F000FF4FF0829FB7F8940B8FEA89FB898081C8
:100500008062CFCFCF93DF93EC01888D8823B9F041
:10051000AA89BB89E889F9898C9185FD03C080810E
:1005200086FD0DC00FB607FCF7CF8C9185FFF2CF8B
:10053000808185FFEDCFCE010E941302E9CFDF91CC
:10054000CF91089580E090E0892B29F00E94090264
:1005500081110E94000080E090E0892B49F080E04A
:1005600090E0892B29F00E94000081110E94000078
:1005700080E090E0892B49F080E090E0892B29F021
:100580000E94000081110E94000080E090E0892B11
:1005900049F080E090E0892B29F00E940000811151
:1005A0000C9400000895282F30E0F901E45FFD4F1E
:1005B0009491F901EA53FE4F449120583E4FF901BE
:1005C0002491222309F435C0992311F191509231DD
:1005D000F8F4E92FF0E08827EF50FD4F8F4F0C948F
:1005E0000F082203260303031A031E03080329032B
:1005F0002F03330339033D03410347034B03080330
:100600004F0355035903809180008F7780938000BA
:10061000E22FF0E0EE0FFF1FEA59FE4FA591B491D3
:100620008FB7F894EC91611148C040954E234C93DC
:100630008FBF0895809180008F7DE8CF80918000EA
:10064000877FE4CF84B58F7784BDE2CF84B58F7D7B
:10065000FBCF8091B0008F778093B000D9CF80918D
:10066000B0008F7DF9CF809190008F7780939000BC
:10067000CFCF809190008F7DF9CF80919000877FC0
:10068000F5CF8091A0008F778093A000C1CF80919B
:10069000A0008F7DF9CF8091A000877FF5CF80915A
:1006A00020018F7780932001B3CF809120018F7D2F
:1006B000F9CF80912001877FF5CF4E2BB8CFCF9314
:1006C000DF9390E0FC01EA53FE4F249180589E4F47
:1006D000FC0184918823D1F090E0880F991FFC01E0
:1006E000E45BFE4FA591B491FC01EA59FE4FC59120
:1006F000D49161110EC09FB7F8948C91E22FE095D0
:100700008E238C932881E223E8839FBFDF91CF91D2
:1007100008958FB7F894EC91E22BEC938FBFF6CF4E
:1007200090917B00977F90937B00806480937C0006
:1007300080917A00806480937A0080917A0086FDAF
:10074000FCCF809178009091790008953FB7F8949C
:100750008091730290917402A0917502B09176021B
:1007600026B5A89B05C02F3F19F00196A11DB11D0C
:100770003FBFBA2FA92F982F8827BC01CD01620F48
:10078000711D811D911D42E0660F771F881F991F03
:100790004A95D1F708952091520330915303232BAA
:1007A00039F421E0FC018081882361F020E00AC057
:1007B000BC0180914E0390914F030E94260A21E0D4
:1007C000892BA1F7822F08950F931F93CF93DF9367
:1007D000EC0188819981009759F02A813B81261785
:1007E000370730F081E0DF91CF911F910F9108958D
:1007F0008B016F5F7F4F0E943C09009759F09983EE
:1008000088831B830A832C813D81232B59F7FC01AC
:100810001082E8CF80E0E7CF1F920F920FB60F92C1
:1008200011240BB60F922F933F934F935F936F93C7
:100830007F938F939F93AF93BF93EF93FF9381EB3E
:1008400092E00E941302FF91EF91BF91AF919F91AF
:100850008F917F916F915F914F913F912F910F9069
:100860000BBE0F900FBE0F901F9018951F920F9206
:100870000FB60F9211240BB60F922F938F939F9365
:10088000EF93FF93E091C102F091C2028081E09169
:10089000C702F091C80282FD1DC090818091CA02FA
:1008A0008F5F8F732091CB02821741F0E091CA02D3
:1008B000F0E0EF54FD4F958F8093CA02FF91EF91C6
:1008C0009F918F912F910F900BBE0F900FBE0F90A5
:1008D0001F9018958081F2CF1F920F920FB60F9242
:1008E00011242F933F938F939F93AF93BF93809146
:1008F000AD029091AE02A091AF02B091B0023091E2
:10090000720223E0230F2D3758F50196A11DB11D6A
:10091000209372028093AD029093AE02A093AF0237
:10092000B093B0028091730290917402A09175020D
:10093000B09176020196A11DB11D80937302909330
:100940007402A0937502B0937602BF91AF919F910C
:100950008F913F912F910F900FBE0F901F90189580
:1009600026E8230F0296A11DB11DD2CF1092B4022A
:100970001092B30288EE93E0A0E0B0E08093B5025D
:100980009093B602A093B702B093B8028BE092E0C6
:100990009093B2028093B10285EC90E09093BE02F6
:1009A0008093BD0284EC90E09093C0028093BF02DC
:1009B00080EC90E09093C2028093C10281EC90E0C1
:1009C0009093C4028093C30282EC90E09093C6029D
:1009D0008093C50286EC90E09093C8028093C70292
:1009E0001092CA021092CB021092CC021092CD0249
:1009F00010924F0310924E03109251031092500325
:100A0000109253031092520370E060E08EE493E082
:100A10000E94E40320914E0330914F03811113C0D3
:100A20002115310519F0C9010E94B30810924F0336
:100A300010924E03109253031092520310925103DE
:100A4000109250030895109253031092520360E7DE
:100A500072E0C9010C942F0ACF93DF9300D000D02D
:100A60001F921F92CDB7DEB7789484B5826084BDA3
:100A700084B5816084BD85B5826085BD85B58160A2
:100A800085BD80916E00816080936E001092810020
:100A900080918100826080938100809181008160DB
:100AA000809381008091800081608093800080919C
:100AB000B10084608093B1008091B0008160809328
:100AC000B0008091910082608093910080919100AC
:100AD000816080939100809190008160809390006C
:100AE0008091A10082608093A1008091A10081602B
:100AF0008093A1008091A00081608093A0008091EC
:100B00002101826080932101809121018160809385
:100B100021018091200181608093200180917A00E1
:100B2000846080937A0080917A00826080937A005A
:100B300080917A00816080937A0080917A00806849
:100B400080937A001092C10061E08DE00E945F0303
:100B500061E08CE00E945F0361E08BE00E945F0334
:100B600061E08AE00E945F03E091C102F091C2025D
:100B700082E08083E091BD02F091BE021082E0919C
:100B8000BF02F091C0028FEC80831092C902E09105
:100B9000C502F091C60286E08083E091C302F09125
:100BA000C402808180618083E091C302F091C4021D
:100BB000808188608083E091C302F091C4028081CB
:100BC00080688083E091C302F091C40280818F7DB0
:100BD000808360E086E30E945F0360E087E30E9419
:100BE0005F0360E088E30E945F0360E089E30E94A6
:100BF0005F0304E311E09AE9892E992493942EE58A
:100C0000222E22E0322E37E7A32E32E0B32E81EBE4
:100C100092E00E94FD01181619060CF092C11A828A
:100C200019821C821B821E821D8270E060E0CE0150
:100C300001960E94E40329813A8181112FC0211578
:100C4000310519F0C9010E94B3081A8219821E8267
:100C50001D821C821B820E94AF0197FD27C08D3030
:100C6000910521F18F831886ED80FE802FEFE21A27
:100C7000F20AB701CE0101960E94E403882359F3DA
:100C800029813A818D819E81BE01695F7F4F820FEC
:100C9000931F0E942F0AFE82ED82DDCF1E821D82ED
:100CA00060E772E0C9010E942F0AD5CF80914E0300
:100CB00090914F03009709F42AC169817A816115E7
:100CC000710509F422C140915003509151032D81C7
:100CD0003E814217530708F418C10E942F0A8D81E4
:100CE0009E8190935303809352031E821D828981BB
:100CF0009A81009711F00E94B30881EB92E00E9464
:100D00009B01F82E8093AC0289E192E00E94CB0314
:100D1000882321F061E08DE00E94D30284E292E01A
:100D20000E94CB03882321F060E08DE00E94D30273
:100D300080E392E00E94CB03882321F061E08CE005
:100D40000E94D30289E392E00E94CB03882321F022
:100D500060E08CE00E94D30283E492E00E94CB0327
:100D6000882359F01093AB020093AA029092A90233
:100D70008092A80281E08093A7028CE492E00E9416
:100D8000CB03882359F09092AB028092AA02109371
:100D9000A9020093A80281E08093A70285E592E072
:100DA0000E94CB03882309F4D5C01093AB020093B3
:100DB000AA021093A9020093A80281E08093A702DF
:100DC00081E4F81609F4BAC092E4F91609F4C8C02F
:100DD000E090A302F090A4028091A5029091A60257
:100DE00004970CF007C1C090AA02D090AB02CE14B9
:100DF000DF040CF4B8C061E08CE00E94D30260E034
:100E00008AE00E94D30260E08BE00E94D30281E07E
:100E100090E09093A6028093A5028091000288231F
:100E200009F470C080E00E949003F82EE92E8093B0
:100E3000A3029093A40281E00E949003D82EC92EB1
:100E40008093A1029093A20282E00E949003782EE8
:100E5000692E80939F029093A00283E00E949003EA
:100E60002091A6022F932091A5022F939F938F93F9
:100E70006F927F92CF92DF92EF92FF923F922F92EA
:100E8000BF92AF920E94360AF50101900020E9F767
:100E9000AF014857524067E772E081EB92E00E9451
:100EA0005F0142E050E06EE672E081EB92E00E946A
:100EB0005F010E94A6032B013C010FB6F894DEBF30
:100EC0000FBECDBF84E6C82ED12CE12CF12C0E94A0
:100ED000A6036419750986099709683E7340810560
:100EE0009105A8F391E0C91AD108E108F108E8EEEC
:100EF0004E0EE3E05E1E611C711CC114D104E104BE
:100F0000F10429F70E94A20282CE0E94B3088981CF
:100F10009A8190934F0380934E038B819C81909391
:100F20005103809350038D819E819093530380934E
:100F300052031A8219821C821B82D7CE81E08093D1
:100F400000028091A702811143CF1092A602109255
:100F5000A50263CFE1E4FE1689F3F2E4FF12F1CFBC
:100F600010920002EECF60E08CE00E94D3028091EC
:100F7000A8029091A902C80ED91ECE14DF049CF0DD
:100F800061E08BE00E94D30260E08AE00E94D3021D
:100F900060E08CE00E94D302E2E0F0E0F093A60271
:100FA000E093A5023ACF60E08BE00E94D302FDEF10
:100FB000EF16F3E0FF067CF461E08AE00E94D302C2
:100FC00060E08CE00E94D30260E08BE00E94D302DC
:100FD00083E090E01ECF60E08AE00E94D30260E0F0
:100FE0008BE00E94D30261E08DE00E94D302E4E036
:100FF000F0E0D4CFF2E0EF16F1040CF00ECF60E099
:101000008DE00E94D3021092A7029FCF80914E03E1
:1010100090914F03009711F00C94B3080895EE0FD0
:10102000FF1F881F8BBF0790F691E02D19940F9337
:101030001F93CF93DF938230910510F482E090E00C
:10104000E0915603F091570330E020E0B0E0A0E0DB
:10105000309799F42115310509F44AC0281B390B42
:1010600024303105D8F58A819B816115710589F19C
:10107000FB0193838283FE0111C040815181028173
:10108000138148175907E0F04817590799F410974A
:1010900061F012960C93129713961C933296CF011F
:1010A000DF91CF911F910F910895009356031093F4
:1010B0005703F4CF2115310551F04217530738F08B
:1010C000A901DB019A01BD01DF01F801C1CFEF01E8
:1010D000F9CF9093570380935603CDCFFE01E20FD3
:1010E000F31F819391932250310939832883D7CFFD
:1010F0002091540330915503232B41F42091030296
:10110000309104023093550320935403209101023F
:10111000309102022115310541F42DB73EB74091BF
:10112000050250910602241B350BE0915403F09107
:101130005503E217F307A0F42E1B3F0B28173907BE
:1011400078F0AC014E5F5F4F2417350748F04E0F23
:101150005F1F5093550340935403819391939FCF06
:10116000F0E0E0E09CCFCF93DF930097E9F0FC0143
:10117000329713821282A0915603B0915703ED016A
:1011800030E020E01097A1F420813181820F931F7D
:1011900020915403309155032817390709F061C095
:1011A000F0935503E0935403DF91CF910895EA0142
:1011B000CE17DF07E8F54A815B819E014115510595
:1011C000B1F7E901FB83EA8349915991C40FD51F17
:1011D000EC17FD0761F4808191810296840F951FC1
:1011E000E90199838883828193819B838A83F0E0DC
:1011F000E0E012968D919C9113970097B9F52D918F
:101200003C911197CD010296820F931F20915403B8
:10121000309155032817390739F6309751F5109258
:10122000570310925603B0935503A0935403BCCFB9
:10123000D383C28340815181840F951FC817D9077A
:1012400061F44E5F5F4F88819981480F591F518328
:1012500040838A819B81938382832115310509F024
:10126000B0CFF0935703E09356039ECFFD01DC010E
:10127000C0CF13821282D7CF4F925F926F927F922C
:101280008F929F92AF92BF92CF92DF92EF92FF9296
:101290000F931F93CF93DF938C01009799F4CB01A9
:1012A000DF91CF911F910F91FF90EF90DF90CF9042
:1012B000BF90AF909F908F907F906F905F904F9076
:1012C0000C941708FC01E60FF71F9C01225031090E
:1012D000E217F30708F4AEC0D901CD91DC91119764
:1012E000C617D70720F1C530D10578F0CE01049795
:1012F0008617970750F0C61BD70B2297C193D1933F
:101300006D937C93CF010E94B308C801DF91CF9108
:101310001F910F91FF90EF90DF90CF90BF90AF9013
:101320009F908F907F906F905F904F9008955B019A
:10133000AC1ABD0A4C018C0E9D1EA0915603B091B3
:101340005703512C412CF12CE12C109731F5809151
:101350005403909155038815990509F05CC0461611
:10136000570608F058C08091010290910202009740
:1013700041F48DB79EB74091050250910602841B3F
:10138000950BE817F90708F055C0F0935503E09363
:101390005403F90171836083B8CF8D919C911197AB
:1013A00012966C90129713967C901397A815B90516
:1013B00059F56C0142E0C40ED11CCA14DB0420F1C3
:1013C000AC014A195B09DA011296159780F0628226
:1013D000738251834083D9016D937C93E114F104AE
:1013E00071F0D7011396FC93EE9312978ECF22964D
:1013F0008C0F9D1FF90191838083F301EFCFF09350
:101400005703E093560381CF4816590608F42C0180
:101410007D01D3019ACFCB010E9417087C01009770
:1014200049F0AE01B8010E941D0AC8010E94B3082C
:1014300087016BCF10E000E068CFFB01DC0102C048
:1014400001900D9241505040D8F70895FB01DC0106
:101450008D91019080190110D9F3990B0895FB012A
:10146000DC0101900D920020E1F708950F931F9386
:10147000CF93DF93CDB7DEB72E970FB6F894DEBFCC
:101480000FBECDBF0E891F8986E08C831A83098326
:101490008FEF9FE79E838D83AE01465E5F4F688D21
:1014A000798DCE0101960E94660A2F813885020F40
:1014B000131FF80110822E960FB6F894DEBF0FBEF0
:1014C000CDBFDF91CF911F910F9108952F923F9241
:1014D0004F925F926F927F928F929F92AF92BF9244
:1014E000CF92DF92EF92FF920F931F93CF93DF93F0
:1014F00000D000D000D01F921F92CDB7DEB77C0184
:101500003B018A01FC0117821682838181FFDDC1C4
:10151000CE0101965C01F7019381F30193FD859162
:1015200093FF81913F01882309F453C1853239F437
:1015300093FD859193FF81913F01853229F4B70195
:1015400090E00E947E0CE7CF912C212C312CFFE102
:10155000F31538F08B3211F190F4803209F18332B7
:1015600029F137FC3CC020ED280F2A3050F536FE1B
:1015700020C08AE0989E200D1124922E06C08D3244
:1015800091F0803371F7689430F8F30193FD859101
:1015900093FF81913F018111DACF21C0689431F826
:1015A000689432F8F2CF689433F8EFCF689434F847
:1015B000ECCFEAE02E9E200D1124222E689435F8FF
:1015C000E4CF8E3229F436FC04C1689436F8DDCFBE
:1015D0008C3619F4689437F8D8CF8836B1F2982F42
:1015E0009F7D95549330E0F08336A1F18337C1F1AC
:1015F000833509F063C02801F2E04F0E511CF80159
:10160000C080D180692D70E036FC02C06FEF7FEFA3
:10161000C6010E94680C4C01689437F882010AC028
:101620000C5F1F4FFFE3F98388248394912C65019D
:10163000E89437F833FE2DC0522C8114910471F5D3
:10164000552009F468CFB70180E290E00E947E0C3B
:101650005A94F6CFF801808189830E5F1F4FE4CF43
:101660002801F2E04F0E511CF801C080D180692D95
:1016700070E036FC02C06FEF7FEFC6010E94730C72
:101680004C018201D5CFB70180E290E00E947E0C30
:101690002A942814190409F0B0F7CECFF60137FCCC
:1016A000859137FE81916F01B70190E00E947E0C19
:1016B00051105A94F1E08F1A9108BFCF843619F077
:1016C000893609F077C0F80137FE6BC060817181FF
:1016D000828193810C5F1F4FF32DFF763F2E97FF82
:1016E00009C090958095709561957F4F8F4F9F4F62
:1016F000689437F82AE030E0A5010E94AE0CC82EAD
:10170000CA188C2C432C36FE0CC0E89440F8C9143F
:1017100040F434FE05C032FC03C0F32DFE7E4F2E94
:10172000892C44FEAAC0FE01EC0DF11D808180339E
:1017300009F09CC0242D297E422E842D8870582EBD
:1017400043FCAAC040FEA4C09C2C821418F42C0CAC
:10175000922C981844FEA6C0B70180E390E00E9446
:101760007E0C42FE09C088E790E041FE02C088E599
:1017700090E0B7010E947E0CC91408F49FC0CA947F
:10178000D12C9FEFC91AD90ACA0CDB1CF601829131
:101790006F01B70190E00E947E0CAC14BD04B1F75C
:1017A0004FCF60817181072E000C880B990B0E5F63
:1017B0001F4F92CFD32CE894D4F82AE030E085373D
:1017C000E1F1232D297FD22E8F36A9F1F0F488354F
:1017D00051F1F701868197812B960FB6F894DEBF01
:1017E0000FBECDBFDF91CF911F910F91FF90EF9072
:1017F000DF90CF90BF90AF909F908F907F906F9031
:101800005F904F903F902F900895803749F0883730
:1018100001F7D4FE02C06894D2F820E130E00DC098
:101820006894D4F8F6CF34FE03C0822F8660D82E99
:1018300020E132E002C028E030E0F801D7FE0FC01E
:1018400060817181828193810C5F1F4FA5010E948D
:10185000AE0CC82ECA183D2CE89437F852CF6081E0
:10186000718190E080E00E5F1F4FF0CF42FC02C01C
:10187000839463CF8394839460CF842D867809F416
:101880005CCFF6CFB70180E290E00E947E0C83949B
:101890008214C0F3512C5ECF522C5818821408F4D5
:1018A00059CFF8CF842D867809F466CF8BE241FEBC
:1018B00080E247FC8DE2B70190E05CCFB70180E3A6
:1018C00090E00E947E0C9A9457CF8FEF9FEF84CFC9
:1018D000FC010590615070400110D8F780959095FB
:1018E0008E0F9F1F0895FC01615070400190011000
:1018F000D8F7809590958E0F9F1F08950F931F9393
:10190000CF93DF93182F092FEB018B8181FD09C045
:101910001FEF0FEF812F902FDF91CF911F910F912C
:10192000089582FF14C02E813F818C819D812817EC
:1019300039073CF4E881F981CF01019699838883C6
:1019400010838E819F8101969F838E83E3CFE885EC
:10195000F985812F1995892BA1F3DACFFA01AA27EE
:10196000283051F1203181F1E8946F936E7F6E5FE2
:101970007F4F8F4F9F4FAF4FB1E03ED0B4E03CD090
:10198000670F781F891F9A1FA11D680F791F8A1F73
:10199000911DA11D6A0F711D811D911DA11D20D0DA
:1019A00009F468943F912AE0269F11243019305D94
:1019B0003193DEF6CF010895462F4770405D419385
:1019C000B3E00FD0C9F7F6CF462F4F70405D4A33D2
:1019D00018F0495D31FD4052419302D0A9F7EACF9A
:1019E000B4E0A6959795879577956795BA95C9F7C9
:1019F00000976105710508959B01AC010A2E0694BC
:101A00005795479537952795BA95C9F7620F731F74
:101A1000841F951FA01D089511E0CAE2D1E000E0E7
:101A200006C0802FFE010E940F082196011DCB32B7
:0C1A3000D10780E00807A9F7F894FFCF69
:101A3C00010000580380000000000035025F018C9B
:101A4C00018202FD019B01EF015B4D4F544F52315E
:101A5C004F4E5D005B4D4F544F52314F46465D002B
:101A6C005B56414C314F4E5D005B56414C314F46FD
:101A7C00465D003031333034303330003031343067
:101A8C0033303330003031333033303430002534A0
:101A9C0064253464253464253464253464000D0ACB
:021AAC00000038
:00000001FF
